:100000000C947B020C94BF020C94BF020C94BF02B0
:100010000C94BF020C94BF020C94BF020C94BF025C
:100020000C94BF020C94BF020C94460D0C94180E55
:100030000C94BF020C94BF020C94BF020C94BF023C
:100040000C94BF020C9441220C94BF020C94BF028A
:100050000C94BF020C94E71B0C94BF020C94BF02DB
:100060000C94BF020C94BF020C94BF020C94BF020C
:100070000C94BF020C94BF020C94BF020C94BF02FC
:100080000C94BF020C94BF020C94BF020C94BF02EC
:100090000C94BF020C94BF020C94BF020C94BF02DC
:1000A0000C94BF020C94BF020C94BF027D0E9F0EF5
:1000B0008A0F9F0E8A0FE10E040F8A0F590F6C0FE3
:1000C0004612461275127512AD12CF12F713F713BE
:1000D000DA12F71381138113EA13F713F713F213EC
:1000E0008E138E138E138E138E138E138E138E1308
:1000F0008E138E138E138E138E138E138E138E13F8
:10010000A013AE13B513BC13C6130000F0A12E004C
:100110004C002900E100350000001E00140004001E
:100120001D7134414D001F001A0016001B00E10430
:100130002A00200008000700060050002C002100C3
:100140001500090019004F004A00220017000A009C
:10015000050000006574500001540000007F00009D
:10016000E3004F000154000000770000E20023008C
:100170001C000B00110000002971240018000D0064
:10018000100052004B0025000C000E0036005100FC
:100190002800260012000F0037002F002B00270038
:1001A00013003342387130004E002D003100347896
:1001B000E500C10000000100010001000100010094
:1001C00000003A001E0220022202010001003B0052
:1001D0001F0221022302010001003C002F0226021F
:1001E0002F00010001003D00300227023000010015
:1001F00001003E003102350035020000010001001F
:1002000001000000010000000100010001000000E9
:100210000100000001003F005200510024020000D4
:1002200001004000240021001E00010001004100E7
:10023000250022001F003700010042002600230095
:10024000200027000100430025022E0231002E006D
:100250000100440045000100010001000000010010
:100260000100010001000100000001000100010087
:1002700001000100010001000100F2000100010085
:1002800001000100F000F1000100F4000100010094
:100290000100F3000100F500010001000100010070
:1002A0000100000001000100010000000100000049
:1002B0000100010001000000010000000100010038
:1002C0000100010001000000010001000100010027
:1002D0000100A9000100010001000100AC00AA001A
:1002E000B600010001000100AB00A8000100010000
:1002F0000100010001000100010001000100AE0049
:1003000001000100000016034500720067006F0045
:1003100044006F007800200045005A0000001603DA
:100320004500720067006F0044006F0078002000F5
:1003300045005A0000000403090409026D0004018D
:1003400000A0FA09040000010301010009211101C4
:1003500000012240000705810308000A090401008A
:100360000103010200092111010001224D000705CE
:10037000820308000A0904020001030000000921A9
:10038000110100012236000705830308000A090451
:1003900003000103000000092111010001223900BE
:1003A000070584031000011201100100000008ED90
:1003B000FE071301000102000105010906A1010564
:1003C0000719E029E7150025019508750181020547
:1003D000081901290595057501910295017503918B
:1003E0000105071900297715002501957875018108
:1003F00002C005010980A101850216010026B7008F
:100400001A01002AB700751095018100C0050C097A
:1004100001A1018503160100269C021A01002A9CF5
:1004200002751095018100C005010902A1010901B1
:10043000A10005091901290515002501950575017A
:10044000810295017503810105010930093115818A
:10045000257F95027508810609381581257F95014C
:1004600075088106050C0A38021581257F950175EE
:10047000088106C0C005010906A101050719E02988
:10048000E715002501950875018102950175088120
:100490000105081901290595057501910295017558
:1004A0000391010507190029FF150026FF00950695
:1004B00075088100C000000000000000000000007E
:1004C000010204060A0F17202C3A4A5D71879DB37A
:1004D000C7DAE9F5FCFFFCF5E9DAC7B39D87715D82
:1004E0004A3A2C20170F0A060402010000000000FF
:1004F00000000000000011241FBECFEFDAE0DEBFD5
:10050000CDBF04B603FE24C08091FB019091FC0195
:10051000A091FD01B091FE018730904BA740B04BF8
:10052000B9F41092FB011092FC011092FD0110929F
:10053000FE0114BE84B7877F84BF88E10FB6F894AC
:1005400080936000109260000FBEE0E0FFE3099529
:1005500011E0A0E0B1E0E0E1F8E402C005900D9206
:10056000A433B107D9F711E0A4E3B1E001C01D92B3
:10057000AB3FB107E1F70E948C0A0C9406240C945F
:10058000000061110BC0FC018281882321F085EEFF
:100590000E94E41003C085EE0E94AC1180E090E060
:1005A000089508956091BD017091BE018091BF01D1
:1005B0009091C0010E94171B56985E9825982D981F
:1005C00026982E9827982F98813019F0823021F0A4
:1005D0000895259A2D9A0895269A2E9A08950C9496
:1005E000D20256985E9825982D9826982E9827988E
:1005F0002F988FEF90E090938900809388009093DC
:100600008B0080938A0090938D0080938C00259AB4
:100610002D9A2FEF80E792E0215080409040E1F743
:1006200000C00000269A2E9A2FEF80E792E021501A
:1006300080409040E1F700C00000279A2F9A2FEFEA
:1006400080E792E0215080409040E1F700C0000038
:1006500025982D982FEF80E792E021508040904020
:10066000E1F700C0000026982E982FEF80E792E077
:10067000215080409040E1F700C0000027982F985B
:1006800056985E9825982D9826982E9827982F98FA
:10069000089589EA8093800089E0809381002498FE
:1006A0002C983F988AB18F748AB96E98479A8BB10B
:1006B000806B8BB9769A0E94F1020C94D10280E291
:1006C000809300018091340181110EC00E94AE031D
:1006D00081E0809334012FEF83ED90E3215080403F
:1006E0009040E1F700C0000080E40E94B4038093D2
:1006F000000181112EC00E94DE0380930001811150
:1007000028C00E94DE0380930001811122C08FE384
:100710000E94DE038093000181111BC00E94D6035A
:1007200080E40E94B40380930001811112C08CE028
:100730000E94DE038093000181110BC00E94DE0342
:1007400080930001811105C08FE30E94DE03809336
:1007500000010E94D6038091000108951092B90013
:100760008AE08093B800089594EA9093BC00909139
:10077000BC0097FFFCCF9091B900987F983021F092
:10078000903111F081E008958093BB0084E880935C
:10079000BC008091BC0087FFFCCF8091B900887FAE
:1007A000883111F0803471F780E0089584E98093F6
:1007B000BC008091BC0084FDFCCF08958093BB00F9
:1007C00084E88093BC008091BC0087FFFCCF9091AF
:1007D000B900987F81E0983209F480E0089584E8B8
:1007E0008093BC008091BC0087FFFCCF8091BB0050
:1007F000089580910001811115C080E40E94B40326
:100800008093000181110CC082E10E94DE0380937D
:100810000001811105C08FEF0E94DE03809300016B
:100820000E94D60384B1807F84B985B1807F85B969
:100830008AB1837F8AB98BB1837F8BB93E98469802
:1008400008950E945F03809300010E94F90380B322
:100850008C7080BB81B3836F81BBE4E4F1E0A6E3DD
:10086000B1E011921D9281E0E235F807D1F70C94C6
:100870004903BF92CF92DF92EF92FF920F931F93A3
:10088000CF93DF9380910001882379F08091350127
:100890008F5F80933501811108C00E945F038093B0
:1008A0000001811102C00E94F10206E311E0C0E0E4
:1008B000D0E0DD24D39482E0C82EEE24E394F12C22
:1008C000C73000F580910001811162C080E40E9470
:1008D000B40380930001811112C082E10E94DE0303
:1008E0008093000181110BC0C7010C2E01C0880F3D
:1008F0000A94EAF780950E94DE03809300010E942B
:10090000D60346C0CA30A1F028F4C83059F0C93027
:1009100061F005C0CC3089F070F0CD3089F0209ABC
:10092000289810C0219A29980DC0229A2A980AC0A6
:10093000239A2B9807C0529A01C0539A5B9802C021
:100940003E9A4698E0EAEA95F1F78FB179995AC054
:1009500092E081708D25892B7C9B02C090E001C0C4
:1009600094E0892B7D9B02C090E001C098E0892B28
:100970007E9B02C090E001C090E1892B9FB19095D1
:10098000991F9927991F9295990F907E892B0FC0D7
:100990008091000181114BC080E40E94B4038093D8
:1009A0000001882389F1B12C0E94D6038B2DF80118
:1009B0009081981719F08083C09201010E94F90379
:1009C00021960F5F1F4FCE30D10509F079CF80916E
:1009D0000101882371F1815080930101882339F04E
:1009E0008FE99FE00197F1F700C0000022C0A4E466
:1009F000B1E0E6E3F1E081918D9391E0E434F90711
:100A0000D1F717C090E0A5CF83E10E94DE03809369
:100A100000018111C8CF81E40E94B40380930001DA
:100A20008111C1CF0E94EF03B82EB094BDCF80E0FA
:100A3000BECF0E94EF0281E0DF91CF911F910F9115
:100A4000FF90EF90DF90CF90BF900895E82FF0E0F7
:100A5000EC5BFE4F8081089508951F93CF93DF9341
:100A6000C4E4D1E010E0899190E00E940B1B180FC4
:100A700081E0C235D807B9F7812FDF91CF911F915F
:100A8000089581E0089581E008950C944305089548
:100A90000F931F93CF93DF93EC0108811981C80155
:100AA0000E949219B8010E94DD058C01BE010E94CE
:100AB0004505882309F47AC08A818823C9F1809189
:100AC0005D0181111EC0043180E5180789F50E947F
:100AD000470581E080935D010E94B21B90935C0109
:100AE00080935B01109254011092560110925501AF
:100AF000109258011092570110925A011092590108
:100B000055C080915B0190915C010E94BE1B883CA6
:100B1000910570F480915401E82FF0E0EE0FFF1F73
:100B2000EB5AFE4F118300838F5F809354013EC0C8
:100B3000043880E5180721F005381045A1F02AC0D7
:100B40008A81882321F01092520182E012C08091A4
:100B50005201811106C086E20E94E41086E20E94E2
:100B6000AC1182E014C08A81882331F010925301C5
:100B700080E20E94FB111AC080915301811106C0CE
:100B800087E20E94E41087E20E94AC1180E20E949A
:100B900002120CC081E08093520180935301CE0178
:100BA000DF91CF911F910F910C94410580E0DF916F
:100BB000CF911F910F910895089596E0799FF001CC
:100BC000112494E5899FE00DF11D1124E60FF11D1C
:100BD000EE0FFF1FE25FFE4F859194910895880FFD
:100BE000991F86579040FC01859194910895880F34
:100BF000991F865F9E4FFC018591949108950F93F4
:100C00001F93CF93DF93EC01811520E3920740F50A
:100C1000811530E2930708F0C4C08B3B910588F43E
:100C2000883A910508F06BC0853A910508F05CC0E0
:100C30008430910508F056C08130910509F4C8C18F
:100C4000C4C18F3F910511F008F04CC0803F910561
:100C500008F0A4C0805E9109089708F443C0B5C1AC
:100C6000C13080E5D80709F4A4C020F5C0312FE4D5
:100C7000D20770F4C11530E4D30708F096C0C1154F
:100C800081E3D80708F0A1C18E011127106CE1C1E2
:100C9000C115D04509F099C10E9465143FEF84E366
:100CA0009CE0315080409040E1F700C000000E947D
:100CB0000C1CCFC1C11527E5D20758F4C03131E56E
:100CC000D30708F01EC1C43180E5D80708F477C007
:100CD0007CC1CE0190578115904108F076C18E01FC
:100CE0001F7071C18E01B5C1853A910509F473C1B8
:100CF000863A910509F472C103E810E4AAC1883A62
:100D0000910509F46EC1893A910509F46DC18A3AD9
:100D1000910509F46CC18B3A910509F46BC18C3AC9
:100D2000910509F46AC18D3A910509F469C1803BC6
:100D3000910509F468C18E3A910509F467C18F3AAB
:100D4000910509F466C1813B910509F465C1823BB7
:100D5000910509F464C1833B910509F463C1843BA7
:100D6000910509F462C1853B910509F461C1863B97
:100D7000910509F460C1873B910509F45FC1883B87
:100D8000910509F45EC1893B910509F45DC18A3B77
:100D9000910509F05CC10AE216E45BC18C011065A3
:100DA00058C19F700E94F70555C18E011F70106ACF
:100DB00050C18091DA0181608093DA014AC10E94BA
:100DC000B21D811102C00E94981D0E94CF1D90E0AB
:100DD0009093FB018093FA01C23020E5D20721F401
:100DE0008091FA01816086C0C43030E5D30721F4D8
:100DF0008091FA0182607EC0C63080E5D80721F478
:100E00008091FA01846076C0C83090E5D90719F462
:100E10008091FA0127C0CA3020E5D20721F48091E1
:100E2000FA01806167C0CC3030E5D30721F48091AE
:100E3000FA0180625FC0CE3080E5D80721F480914E
:100E4000FA01806457C0C03190E5D90721F4809140
:100E5000FA0180684FC0C23120E5D20729F48091A1
:100E6000FA018460886046C0C33030E5D30721F4BE
:100E70008091FA018E7F3EC0C53080E5D80721F40D
:100E80008091FA018D7F36C0C73090E5D90721F4F3
:100E90008091FA018B7F2EC0C93020E5D20719F46A
:100EA0008091FA0126C0CB3030E5D30721F4809140
:100EB000FA018F7E1FC0CD3080E5D80721F48091E4
:100EC000FA018F7D17C0CF3090E5D90721F48091CA
:100ED000FA018F7B0FC0C13120E5D20721F4809148
:100EE000FA018F7707C0C331D04531F48091FA0100
:100EF0008B7F877F8093FA018091FA010E94D31D36
:100F0000A8C08D2F99278F70992781309105E9F41A
:100F10008E01037011279C0102C0220F331F0A9516
:100F2000E2F789011C68CE01E4E0880F991FEA9579
:100F3000E1F788279370082B192BF3E0CC0FDD1F06
:100F4000FA95E1F7C076DD272CC08230910529F4AF
:100F50001C2F0027016F106A7CC08330910561F45B
:100F6000CE018370992701E010E002C0000F111F2D
:100F70008A95E2F71C680EC084309105A9F4CE0171
:100F80008370992701E010E002C0000F111F8A95BD
:100F9000E2F71A6863E0CC0FDD1F6A95E1F7C07EC7
:100FA000D7700C2B1D2B55C08530910529F41C2FB3
:100FB0000027046F106A4DC0069709F04AC0CF7130
:100FC000DD271C2F0027106244C000E010E041C064
:100FD00001E010E03EC001E810E43BC002E810E48C
:100FE00038C002EE14E435C009EE14E432C00AEE53
:100FF00014E42FC005EB14E42CC006EB14E429C064
:1010000007EB14E426C00CEC14E423C00DEC14E44C
:1010100020C003E815E41DC00AE815E41AC002E97F
:1010200015E417C004E915E414C001E216E411C088
:1010300003E216E40EC004E216E40BC005E216E477
:1010400008C006E216E405C007E216E402C000E0AC
:1010500014E4C801DF91CF911F910F91089596E09C
:10106000799FF001112494E5899FE00DF11D112471
:10107000E60FF11DEE0FFF1FE25FFE4F8591949189
:10108000803E9105E0F4803C910558F5813391054F
:1010900009F46FC048F48932910509F463C08A32BB
:1010A000910509F46DC072C089339105E9F0823869
:1010B0009105D1F08533910509F44DC067C0833E99
:1010C000910581F138F4803E9105B9F0823E910599
:1010D000D9F05CC0863E910561F1873E9105A1F192
:1010E00055C00E94EF0508952091FA0120FD02C02D
:1010F00021FF4CC080EE90E049C08091FA0180FF52
:10110000F9CF89E390E042C08091FA0182FF0EC0DE
:101110008091FA0184FF03C080E090E037C083EE45
:1011200090E034C08091FA0182FFF2CF82EE90E02D
:101130002DC08091FA0183FF0BC08091FA0184FDDC
:10114000EBCF87EE90E022C08091FA0183FFF5CFCC
:1011500086EE90E01BC08091FA0185FF07C089E20E
:1011600090E014C08091FA0185FFF9CF85E390E00B
:101170000DC08091FA0186FF07C08AE290E006C0A8
:101180008091FA0186FFF9CF81E390E00E94FF058C
:10119000089508950C94C90880916E010895CF9325
:1011A000DF9300D01F92CDB7DEB72091F10124303C
:1011B00019F523E029839B838A832093E9008FEF2D
:1011C0009091E800815095FD06C095ED9A95F1F754
:1011D00000008111F5CF8091E80085FF0DC040E04F
:1011E00050E063E070E0CE0101960E94390B8091DF
:1011F000E8008E778093E8000F900F900F90DF91BA
:10120000CF910895CF93DF9300D01F92CDB7DEB773
:101210002091F101243021F522E029839B838A83E8
:1012200083E08093E9008FEF9091E800815095FD75
:1012300006C095ED9A95F1F700008111F5CF8091E8
:10124000E80085FF0DC040E050E063E070E0CE01B3
:1012500001960E94390B8091E8008E778093E80018
:101260000F900F900F90DF91CF9108952091F10191
:101270002430F1F422E02093E9002FEF3091E800D0
:10128000215035FD06C035ED3A95F1F700002111EA
:10129000F5CF2091E80025FF0BC040E050E065E06D
:1012A00070E00E94390B8091E8008E778093E8000F
:1012B0000895CF93DF93EC018091F101843009F020
:1012C00046C090910C019923D9F090910D0199237A
:1012D000B9F08093E9008FEF9091E800815095FD7F
:1012E00006C095E19A95F1F700008111F5CF809144
:1012F000E80085FF2CC040E050E060E170E017C0DE
:1013000081E08093E9008FEF9091E800815095FD96
:1013100006C095ED9A95F1F700008111F5CF809107
:10132000E80085FF14C040E050E068E070E0CE01C6
:101330000E94390B8091E8008E778093E80080E16D
:10134000FE01AEE5B1E001900D928A95E1F7DF91E3
:10135000CF9108958091F001811109C00E94CB0CBA
:101360000E94280D8091E20084608093E20008953D
:101370001092F001089508950C942E220E94A31B50
:101380000E9434220E94C50F0C94CA0842E061EC0E
:1013900081E00E94450C42E061EC82E00E94450C35
:1013A00042E061EC83E00E94450C42E161EC84E0A4
:1013B0000C94450C8091F301833009F455C030F44E
:1013C000813071F0823009F48EC008958A3009F4BA
:1013D0007AC08B3009F460C0893009F09CC020C00D
:1013E0008091F201813A09F096C08091E800877FF0
:1013F0008093E8008091F6019091F701892B21F00C
:1014000060E080E090E003C060E18EE591E070E094
:101410000E94820B8091E8008B778093E80008950A
:101420008091F201813209F076C08091F6019091AD
:10143000F701009719F0039709F06DC08091E8005B
:10144000877F8093E8008091E80082FD05C080914D
:10145000F1018111F8CF5FC08091F10080936E019E
:101460008091E8008B7753C08091F201813A09F0B6
:1014700052C08091F6019091F701892B09F04BC081
:101480008091E800877F8093E8008091E80080FFEA
:10149000FCCF80910C0136C08091F2018132D9F5E8
:1014A0008091F6019091F701892BA9F58091E800D0
:1014B000877F8093E8000E947A0C8091F4018093EA
:1014C0000C010C9465148091F201813221F5809118
:1014D000E800877F8093E8000E947A0C8091F501F4
:1014E00080936F0108958091F201813AA1F4809177
:1014F000E800877F8093E8008091E80080FFFCCFC0
:1015000080916F018093F1008091E8008E77809345
:10151000E8000C947A0C089584B7877F84BF88E133
:101520000FB6F89480936000109260000FBE90E0B8
:1015300080E80FB6F89480936100909361000FBE2D
:101540000E9414100E94CB0C0E94280D8091E20092
:1015500084608093E20078940E94A30F0E9416108A
:1015600082E091E00E94C00F0E941C228091F10154
:10157000853069F40E946A1B8091EF018823B1F3E2
:101580000E94951B882391F30E94230BEFCF0E94AA
:101590001C10ECCF292F332723303105A9F06CF430
:1015A0002130310509F442C02230310509F043C031
:1015B0008DE690E02AE333E042C021323105C9F0E4
:1015C0002232310519F137C099278130910541F058
:1015D0008230910541F0892B71F5E6E3F3E005C017
:1015E000EEE1F3E002C0E6E0F3E0849190E09F01D9
:1015F00026C0643000F5E62FF0E0EE0FFF1FEE5D31
:10160000FE4F2081318189E090E019C0643098F468
:10161000E62FF0E0DF01AA0FBB1FA65EBE4F2D91A3
:101620003C91EA5EFE4F808190E009C082E190E04B
:1016300027EA33E004C080E090E020E030E0FA01E7
:1016400031832083089580E189BD82E189BD09B499
:1016500000FEFDCF8091D8008F7D8093D8008091CF
:10166000E00082608093E0008091E00081FDFCCF8B
:101670000895CF92DF92EF92FF920F931F93CF9333
:10168000DF937C018B01EA010E949B0C811131C028
:10169000209731F088819981081B190BE80EF91EFB
:1016A000C12CD12C0115110519F18091E80085FD9F
:1016B00014C08091E8008E778093E800209741F075
:1016C000888199818C0D9D1D9983888385E011C047
:1016D0000E949B0C882331F30CC0F70181917F019C
:1016E0008093F10001501109FFEFCF1ADF0ADACF22
:1016F00080E0DF91CF911F910F91FF90EF90DF90ED
:10170000CF9008952091F8013091F90126173707FD
:1017100048F06115710539F42091E8002E77209387
:10172000E80001C0B901FC0120E061157105B9F1C3
:101730008091F101882309F440C0853009F43FC04D
:101740008091E80083FD3DC08091E80082FF06C0E3
:101750008091E80082FF26C080E008958091E80033
:1017600080FFE3CF2091F3008091F20090E0922B74
:101770006115710551F08830910538F4219120935D
:10178000F100615071090196F3CF21E0089709F04B
:1017900020E08091E8008E778093E800C6CF211189
:1017A000C7CFD6CF8091F101882339F0853039F049
:1017B0008091E80083FFCCCF04C082E0089583E0ED
:1017C000089581E008952091F8013091F9012617DC
:1017D000370748F06115710539F42091E8002E773C
:1017E0002093E80001C0B901FC0120E061157105FA
:1017F000C1F18091F101882309F441C0853009F4D9
:1018000040C08091E80083FD3EC08091E80082FFE7
:1018100006C08091E80082FF27C080E00895809193
:10182000E80080FFE3CF2091F3008091F20090E088
:10183000922B6115710559F08830910540F424917F
:101840002093F1003196615071090196F2CF21E0A9
:10185000089709F020E08091E8008E778093E800F7
:10186000C5CF2111C6CFD5CF8091F101882339F0A2
:10187000853039F08091E80083FFCBCF04C082E04F
:10188000089583E0089581E00895982F973058F5E2
:101890009093E900981739F07091EC002091ED00D9
:1018A0005091F00003C0242F762F50E021FF19C083
:1018B0003091EB003E7F3093EB003091ED003D7FA7
:1018C0003093ED003091EB0031603093EB0070937A
:1018D000EC002093ED005093F0002091EE0027FFE4
:1018E00007C09F5FD3CF8F708093E90081E0089598
:1018F00080E008958091F20187FD05C08091E800A5
:1019000080FF0EC012C08091E80082FD05C080916A
:10191000F1018111F8CF08958091E8008B7708C01C
:101920008091F1018111EACF08958091E8008E77CE
:101930008093E80008958091E4009091E50045E6E9
:101940002091EC0020FF21C02091E80020FD21C063
:101950002091F101222389F0253089F02091EB00BC
:1019600025FD0FC02091E4003091E50028173907CC
:1019700039F3415041F0C901E3CF82E0089583E09B
:10198000089581E0089584E008952091E80022FF01
:10199000DFCF80E008950E94390D0E94410DE0EEF6
:1019A000F0E0808181608083E8EDF0E080818F77D6
:1019B000808319BCA7EDB0E08C918E7F8C938081E1
:1019C0008F7E80831092F00108950F931F93CF9321
:1019D000DF930E94390D0E94410DC8EDD0E088814F
:1019E0008F77888388818068888388818F7D8883CA
:1019F00019BC1092F1011092ED011092EF011092BA
:101A0000EE0100EE10E0F80180818B7F80838881F9
:101A10008160888342E060E080E00E94450CE1EE56
:101A2000F0E080818E7F8083E2EEF0E08081816053
:101A30008083808188608083F80180818E7F8083AD
:101A4000888180618883DF91CF911F910F910895E4
:101A5000E8EDF0E080818F7E8083E7EDF0E080812B
:101A60008160808384E082BF81E08093F0010C94E8
:101A7000E50CE8EDF0E080818E7F80831092E2003B
:101A800008951092DA001092E10008951F920F92CB
:101A90000FB60F9211242F933F934F935F936F9341
:101AA0007F938F939F93AF93BF93EF93FF93809117
:101AB000E10082FF0BC08091E20082FF07C08091AD
:101AC000E1008B7F8093E1000E94A20F8091DA00F9
:101AD00080FF1FC08091D80080FF1BC08091DA007A
:101AE0008E7F8093DA008091D90080FF0DC080E165
:101AF00089BD82E189BD09B400FEFDCF81E08093FC
:101B0000F1010E94AA0905C019BC1092F1010E94BE
:101B1000B8098091E10080FF19C08091E20080FF48
:101B200015C08091E2008E7F8093E2008091E200F8
:101B300080618093E2008091D80080628093D80019
:101B400019BC85E08093F1010E94BC098091E100FD
:101B500084FF30C08091E20084FF2CC080E189BD09
:101B600082E189BD09B400FEFDCF8091D8008F7D50
:101B70008093D8008091E1008F7E8093E100809176
:101B8000E2008F7E8093E2008091E200816080938A
:101B9000E2008091ED01882311F084E007C080917C
:101BA000E30087FF02C083E001C081E08093F10180
:101BB0000E94BE098091E10083FF29C08091E2006C
:101BC00083FF25C08091E100877F8093E10082E060
:101BD0008093F1011092ED018091E1008E7F80935E
:101BE000E1008091E2008E7F8093E2008091E2002C
:101BF00080618093E20042E060E080E00E94450C5A
:101C00008091F00088608093F0000E94BB09FF91F2
:101C1000EF91BF91AF919F918F917F916F915F9164
:101C20004F913F912F910F900FBE0F901F901895DD
:101C30001F920F920FB60F9211242F933F934F9341
:101C40005F936F937F938F939F93AF93BF93CF9344
:101C5000EF93FF93C091E900CF708091EC00109258
:101C6000E9008091F000877F8093F00078940E94D3
:101C7000540E1092E9008091F00088608093F0008B
:101C8000C093E900FF91EF91CF91BF91AF919F91E8
:101C90008F917F916F915F914F913F912F910F9015
:101CA0000FBE0F901F9018951F93CF93DF93CDB762
:101CB000DEB7AA970FB6F894DEBF0FBECDBFE2EF36
:101CC000F1E08091F100819321E0EA3FF207C9F74A
:101CD0000E94DA098091E80083FF1CC12091F20183
:101CE0003091F301832F90E08A30910508F012C102
:101CF000FC01EA5AFF4F0C94B623203881F02238B9
:101D000009F008C18091F6018F708093E9008091FD
:101D1000EB0085FB882780F91092E90006C08091CE
:101D2000EE019091EF01911182609091E800977F10
:101D30009093E8008093F1001092F100C5C0822FCB
:101D40008D7F09F0E7C0222319F0223061F0E2C054
:101D50008091F401813009F0DDC0333009F080E07A
:101D60008093EF0128C08091F401811124C020915B
:101D7000F6012F7009F4CEC02093E9008091EB00AA
:101D800080FF19C08091EB00333011F4806211C0E4
:101D900080618093EB0081E090E0022E01C0880F0B
:101DA0000A94EAF78093EA001092EA008091EB002F
:101DB00088608093EB001092E9008091E800877FB3
:101DC00086C02111A7C01091F4011F778091E30014
:101DD0008078812B8093E3008091E800877F809357
:101DE000E8000E947A0C8091E80080FFFCCF80918F
:101DF000E30080688093E300112311F083E001C0C9
:101E000082E08093F10186C02058223008F082C021
:101E10008091F4019091F5018C3D23E0920779F5D2
:101E200083E08A838AE289834FB7F894DE011396B0
:101E300020E03EE051E2E32FF0E050935700E491C0
:101E400020FF03C0E295EF703F5FEF708E2F90E0B0
:101E5000EA3010F0C79601C0C0968D939D932F5F16
:101E6000243149F74FBF8091E800877F8093E800D5
:101E70006AE270E0CE0101960E94820B14C0AE01AE
:101E80004F5F5F4F6091F6010E94CA0A009709F404
:101E900041C02091E800277F2093E800BC018981A0
:101EA0009A810E94E30B8091E8008B778093E80091
:101EB00031C0203879F58091E800877F8093E80071
:101EC0008091ED018093F1008091E8008E778093FE
:101ED000E8000E947A0C1EC021111CC09091F401F0
:101EE0009230C0F48091E800877F8093E80090935F
:101EF000ED010E947A0C8091ED01811104C0809166
:101F0000E30087FF02C084E001C081E08093F1011B
:101F10000E94C6098091E80083FF0AC08091E80012
:101F2000877F8093E8008091EB0080628093EB00D4
:101F3000AA960FB6F894DEBF0FBECDBFDF91CF914A
:101F40001F9108950895CF938091F1018823B1F0F6
:101F50008091E9008F709091EC0090FF02C090E8B2
:101F600001C090E0C92FC82B1092E9008091E800D1
:101F700083FD0E94540ECF70C093E900CF91089565
:101F800090937501809374010895E0917401F0912C
:101F90007501309721F00190F081E02D099480E0E7
:101FA0000895E0917401F0917501309721F002805D
:101FB000F381E02D09940895E0917401F091750189
:101FC000309721F00480F581E02D09940895209147
:101FD0007201309173018217930771F0909373012E
:101FE00080937201E0917401F0917501309721F0B6
:101FF0000680F781E02D09940895209170013091B9
:1020000071018217930771F09093710180937001B1
:10201000E0917401F0917501309721F00084F18511
:10202000E02D0994089508950C9413100E94A91BA3
:102030000E9421040C946D1C9F92AF92BF92CF928C
:10204000DF92EF92FF920F931F93CF93DF9300D015
:1020500000D000D0CDB7DEB70E94390485E8E82E65
:1020600081E0F82E0DE010E0CC24C394D12C902E0A
:10207000802F0E942605F701B2907F01B826A1F4B7
:1020800001501109A0F78FEF89838A831B820E9478
:10209000B21B8160782F9D838C8349815A816B812B
:1020A0008D810E94B61031C09091DA0191FF04C079
:1020B0008E830E942C058E8125E030E0A601022E41
:1020C00001C0440F0A94EAF7A42E4B21D1F02983D2
:1020D0009A828A2191E009F490E09B830E94B21BCE
:1020E0008160782F9D838C8349815A816B818D819A
:1020F0000E94B610F801E958FE4F80818A2580833E
:1021000004C021503109D0F6BBCF0E94511F10915D
:1021100076010E94C50F1817B9F00E94C50F809371
:10212000760126960FB6F894DEBF0FBECDBFDF91C5
:10213000CF911F910F91FF90EF90DF90CF90BF90C4
:10214000AF909F900C94CA0826960FB6F894DEBF05
:102150000FBECDBFDF91CF911F910F91FF90EF90F8
:10216000DF90CF90BF90AF909F900895CF93DF9373
:10217000CDB7DEB72B970FB6F894DEBF0FBECDBF3D
:102180004F83588769877A878B87DE01119686E0AF
:10219000FD0111928A95E9F785E0FE0137960190DD
:1021A0000D928A95E1F749815A816B817C818D81FD
:1021B0009E810E9435172B960FB6F894DEBF0FBE96
:1021C000CDBFDF91CF910895CF93C82F882309F415
:1021D000C1C0823859F40E94C50F81FDBBC089E39C
:1021E0000E94121A0E94DC1A89E30CC0833879F429
:1021F0000E94C50F80FDAEC083E50E94121A0E94A6
:10220000DC1A83E50E94521ACF910C94DC1A8438B0
:1022100059F40E94C50F82FD9DC087E40E94121AE6
:102220000E94DC1A87E4EECF8CEF8C0F813A48F4E1
:102230008C2F0E94842181118DC08C2F0E94121A34
:10224000E3CF80E28C0F883048F4C77081E001C092
:10225000880FCA95EAF70E94931AD6CF8BE58C0FA8
:10226000833078F4C53A29F0C63A31F482E890E038
:1022700005C081E890E002C083E890E0CF910C9423
:10228000E70F88E58C0F833108F064C0C83A39F154
:10229000C93A41F1CA3A49F1CB3A51F1CC3A59F134
:1022A000CD3A61F1C03B69F1CE3A71F1CF3A79F1A3
:1022B000C13B81F1C23B89F1C33B91F1C43B99F130
:1022C000C53BA1F1C63BA9F1C73BB1F1C83BB9F190
:1022D000C93BC1F1CA3BC9F58AE292E038C082EE3F
:1022E00090E035C089EE90E032C08AEE90E02FC0D9
:1022F00085EB90E02CC086EB90E029C087EB90E066
:1023000026C08CEC90E023C08DEC90E020C083E8E8
:1023100091E01DC08AE891E01AC082E991E017C0FF
:1023200084E991E014C081E292E011C083E292E07E
:102330000EC084E292E00BC085E292E008C086E223
:1023400092E005C087E292E002C080E090E0CF9189
:102350000C94FD0FCF910895882309F44BC0823867
:1023600059F40E94C50F81FF45C089E30E94121AEB
:102370000E94DC1A89E30CC0833871F40E94C50FF7
:1023800080FF38C083E50E94121A0E94DC1A83E5A0
:102390000E94521A0C94DC1A843859F40E94C50F1A
:1023A00082FF28C087E40E94121A0E94DC1A87E488
:1023B000EFCF9CEF980F913A58F390E2980F983036
:1023C00050F4877091E001C0990F8A95EAF7892F40
:1023D0000E94991ADFCF9BE5980F933020F480E09C
:1023E00090E00C94E70F885A833120F480E090E06D
:1023F0000C94FD0F0895882321F00E94931A0C94E9
:10240000DC1A0895882321F00E94991A0C94DC1A92
:1024100008958F929F92AF92BF92CF92DF92EF92E8
:10242000FF920F931F93CF93DF931F92CDB7DEB729
:102430004C01A62E472FFC01E580E2948FE0E822B4
:10244000F280FF2021F079830E94B01A49814983EC
:102450000E940B1A4981882381F0FF2071F080E2ED
:102460008A0D883050F082E00E94F4190E940B1A05
:10247000BB24B394B826498101C0B12CE42FE29566
:10248000EF70F0E0E05AFF4F0C94B623842F807F6A
:10249000142F1F70882311F01295107FFF2089F0F0
:1024A000112309F48DC180E28A0D883020F4812F38
:1024B0000E94931A03C0812F0E94A31A0E94DC1A63
:1024C0007FC18A2D0E94AC11112309F490C180E2D2
:1024D0008A0D883020F4812F0E94991A03C0812F21
:1024E0000E94A91A0E94DC1A82C1242F207F842F07
:1024F0008F70203211F08295807FAA2021F0F1E0C8
:10250000AF16B9F020C0FF2049F0EE2009F40FC14A
:1025100091E0E9120CC10E94C31A69C1EE2021F0BA
:10252000E1E0EE1609F463C189830E94C61A89812D
:1025300004C1FF2029F0F1E0FE1508F458C1F7C0EE
:10254000E11055C1FAC0FF2021F0EE2009F4EFC0E0
:1025500037C1EE2009F4F1C039C1242F2695269504
:10256000237030E02115310521F02130310561F073
:102570003EC1FF2021F08A2D942F937002C080E08D
:1025800090E00E94E70F33C1FF2021F08A2D942FA5
:10259000937002C080E090E00E94FD0F28C18A2D58
:1025A000FF2019F00E94591E02C00E94C11E0E9405
:1025B000461F1DC1842F837009F04EC0F11017C152
:1025C0002A2D229526952770220F220F8A2D8F7093
:1025D000C82ED12CE12CF12C022E04C0CC0CDD1C19
:1025E000EE1CFF1C0A94D2F7A4FE10C06FE070E04E
:1025F00080E090E004C0660F771F881F991F2A951E
:10260000D2F7609570958095909503C060E070E07A
:10261000CB01242F26952695237030E022303105FA
:1026200069F02330310589F06C297D298E299F2995
:102630002130310571F00E948918D9C06C297D299B
:102640008E299F290E94A318D2C00E948918C70111
:10265000B6010E946F18CBC0FF2019F0842F817043
:1026600001C08695882309F4C2C02A2D229526959B
:102670002770220F220F8A2D8F70C82ED12CE12CAB
:10268000F12C022E04C0CC0CDD1CEE1CFF1C0A94A5
:10269000D2F7A4FE10C06FE070E080E090E004C0CC
:1026A000660F771F881F991F2A95D2F7609570953E
:1026B0008095909503C060E070E0CB01242F2695B3
:1026C0002695237030E02230310569F02330310542
:1026D00089F06C297D298E299F292130310571F0DF
:1026E0000E945D1984C06C297D298E299F290E9432
:1026F00077197DC00E945D19C701B6010E94431978
:1027000076C00A2D10E0F801E05EF109E531F1052F
:1027100008F052C0E059FF4F0C94B6231A2D1F70D9
:10272000842F8F71FF2031F00E94DC18812F0E94CE
:10273000FB115DC00E94FD18812F0E94021257C03C
:10274000FF2039F0E11053C0842F8F710E942219AD
:102750004EC081E08E1508F44AC0F6CFFF2039F054
:10276000842F8F710E94DC1842C0FF20C9F3842F90
:102770008F710E94FD183BC0FF2029F0842F8F71BC
:102780000E94C71834C00E94BD1831C0FF2051F00C
:10279000142F1F71812F0E94DC1863E0812F0E948B
:1027A000EB1925C081E00E94F41991E09E15F8F420
:1027B00082E00E94F4191BC0FF2031F0EE2081F26C
:1027C0008A2D0E94E41013C0EE2089F28A2D0E9407
:1027D000AC110DC04F706A2DC4010E94C1020E944D
:1027E000E21705C04F706A2DC4010E94DC05BB20B2
:1027F000F1F00E94E71980FD1AC0F40112820E94D4
:10280000E1190E94DC18C4010E9425140E94E119FC
:102810000F90DF91CF911F910F91FF90EF90DF907C
:10282000CF90BF90AF909F908F900C94FD180F9019
:10283000DF91CF911F910F91FF90EF90DF90CF909C
:10284000BF90AF909F908F9008950F931F93CF9359
:10285000DF93EC01288139818B819C81892B31F0B8
:102860003F3F11F080E003C02F3FE1F781E081118D
:1028700013C0CE010E944805882371F068817981D8
:102880008A810E94DD198C010E9491190E946418AE
:10289000B801CE010E940912DF91CF911F910F91D3
:1028A00008950E94B01A0E94C01A0E94851A0E94C0
:1028B000DC1A0E94F21F0E94461F80E090E00E94F6
:1028C000E70F80E090E00C94FD0F0E94A01A0C949A
:1028D00051140E94D219292F22952F7030E02C30EC
:1028E00031054CF42A3031056CF422503109223084
:1028F0003105B0F407C02C30310571F02F303105AF
:1029000059F00EC0803F31F018F4803E48F402C008
:10291000843F31F481E0089593FB882780F908957E
:1029200080E00895CF93DF9300D000D01F92CDB701
:10293000DEB70F900F900F900F900F90DF91CF9117
:102940000895CF93DF9300D000D000D0CDB7DEB78D
:1029500026960FB6F894DEBF0FBECDBFDF91CF91A4
:1029600008951F93CF93DF93C091850116E0809166
:102970008601C81799F0D0E01C9FF0011D9FF00D53
:102980001124E957FE4F4081518162817381848116
:1029900095810E94A1142196C770E9CFDF91CF9154
:1029A0001F9108954091B7015091B8016091B9010C
:1029B0007091BA018091BB019091BC010C94A1145B
:1029C000CF938091BC0182958F7009F05FC0809198
:1029D000B901882309F45AC020918501A09186018C
:1029E0006091B7017091B8018091BA019091BB01DB
:1029F00031E06F3F09F030E0B32FC6E02A1709F449
:102A000045C0009721F07F3F21F44B2F03C041E0E8
:102A100001C040E030E040FD35C0C29FF001C39FDF
:102A2000F00D1124E957FE4F418174132BC04081F2
:102A3000641328C04281411125C043815481481745
:102A4000590710F441505109481B590B483C510596
:102A5000C8F48091BC018F7080618093BC0186E0D6
:102A6000829FF001839FF00D1124E457FE4F808177
:102A70008F708061808387EB91E00E942514CF9155
:102A80000C94B1142F5F3F4F2770B8CFCF910895AA
:102A9000CF92DF92EF92FF920F931F93CF93DF932A
:102AA000CDB7DEB762970FB6F894DEBF0FBECDBFCD
:102AB0008C0185E0F801DE011D9601900D928A954A
:102AC000E1F7D8014C9111965C91119712966C9197
:102AD00012971396ED90FC9014977091B701E091C6
:102AE000B8012091BA013091BB012115310531F0B7
:102AF000EF3F31F481E07F3F19F403C081E001C072
:102B000080E0B82FB170CB2E80FD6CC1D090B901A0
:102B1000DD2009F4F5C0F091BC01E216F30638F0AF
:102B2000C701821B930B883C910548F09BC0209500
:102B300030952E0D3F1D283C310508F093C08F2F96
:102B4000807F09F052C0E51314C0741312C0D62E52
:102B500061110FC0FF70F061F093BC010E94D214AC
:102B600087EB91E00E9425148091BC01F8018583D8
:102B70006CC1EF2831F05F3F31F481E04F3F19F431
:102B800003C081E001C080E080FD03C081E08627B2
:102B900001C080E0F82FF170FF2E80FF1CC08091F3
:102BA00085012091860136E0821709F428C190E062
:102BB000389FF001399FF00D1124E957FE4F7181C4
:102BC000571306C07081471303C07281671303C097
:102BD00001968770E9CFD62E662309F436C180911D
:102BE000BC0181608093BC0153C0E51308C074131D
:102BF00006C0611104C0D8011596FC93AEC04D8784
:102C00005E878D859E856A8B0E9469146A898823F8
:102C100029F1D62E662311F12091BC01822F8295D5
:102C20008F7090E002970CF460C08091B701909192
:102C3000B80198878F831986FB86EA862C87CE0198
:102C4000079651C0E51731F14D875E878D859E85CA
:102C50006A8B0E9469146A8981112EC0C8010E9482
:102C60002514A4C08F2F807F69F77E2DF98AE88A0A
:102C700089890E94921487EB91E00E942514E7EB6A
:102C8000F1E086E0DF011D928A95E9F70E94D214F7
:102C9000D12CDBC07413D8CF6111D6CFD8011596D3
:102CA000FC93C8010E942514E7EBF1E086E0DF0108
:102CB0001D928A95E9F7C9C0D62E662379F2209134
:102CC000BC01822F82958F7090E0029774F0809102
:102CD000B7019091B8019A8389831B82FD82EC82AF
:102CE0002E83CE0101960E94251486E0F801A7EB01
:102CF000B1E001900D928A95E1F70E94E0146FC057
:102D0000E216F30628F0C701821B930B9C0104C056
:102D1000209530952E0D3F1D283C310508F052C0FE
:102D2000D62E662309F49ACFE5132CC074132AC05B
:102D30008091BC0180FD1DC0982F92959F70C9F0B5
:102D4000D80115968C9315979F3039F09F5F929517
:102D5000907F8F70892B15968C93C8010E94251443
:102D600086E0F801A7EBB1E001900D928A95E1F7BA
:102D700036C086E0F801A7EBB1E001900D928A958C
:102D8000E1F763C04D875E878D859E850E9469143B
:102D9000882379F086E0F801A7EBB1E001900D926D
:102DA0008A95E1F70E94E0140E94D214DD24D394A6
:102DB0004CC08091BC0181608093BC01C8010E941D
:102DC000251443C07E2DF98AE88A89890E949214CD
:102DD000E7EBF1E086E0DF011D928A95E9F70E94BA
:102DE000D21433C0662309F439CF4D875E878D85B1
:102DF0009E850E946914882309F430CFCBCF4D877C
:102E00005E878D859E850E94D219292F22952F706D
:102E100030E0223031052CF49F7041F0811106C062
:102E20000CC0243031052CF49F7049F4805E88304A
:102E300020F0C8010E942514CF2CDC2C06C0D8013C
:102E400015969C91907F91F7F8CF8D2D62960FB6D5
:102E5000F894DEBF0FBECDBFDF91CF911F910F91D0
:102E6000FF90EF90DF90CF9008951F93CF93DF9363
:102E7000CDB7DEB72C970FB6F894DEBF0FBECDBF2F
:102E80004F83588769877A878B879C87CE010796FF
:102E90000E9448158823C1F02F8138858A859B853B
:102EA000892B31F03F3F11F080E003C02F3FE1F765
:102EB00081E0811147C04F81588569857A858B856E
:102EC0009C850E94A1143EC086E0FE013796DE017B
:102ED000119601900D928A95E1F7FF81E8854A8568
:102EE0005B854115510531F0EF3F31F481E0FF3F43
:102EF00019F403C081E001C080E080FD23C020916F
:102F0000860130E0C901019687709927609185019B
:102F100070E086179707F1F1F983EA835D834C83AC
:102F200096E0929FD001939FB00D1124A957BE4FF8
:102F3000FE01319601900D929A95E1F780938601FA
:102F40000E94B11416E08091850190918601891745
:102F500079F1189FC001112489579E4F0E9448158E
:102F6000882331F1E09185011E9FF0011124E9577A
:102F7000FE4F4081518162817381848195810E94DD
:102F8000A1148091850190E0019687709927809324
:102F90008501D9CF0E946514109286011092850197
:102FA000E7EBF1E086E0DF011D928A95E9F7CACFF1
:102FB0002C960FB6F894DEBF0FBECDBFDF91CF9138
:102FC0001F910895EF92FF920F931F93CF93DF937A
:102FD0009C01009709F471C0F12CEE24E394E901FF
:102FE0002196F9018491843740F4843008F056C06A
:102FF000813081F0823021F160C0853709F449C009
:10300000C0F19CE7980F903708F057C08F770E9467
:10301000AC1146C089010E5F1F4FFE01849190E202
:10302000980F983050F48770FE2D01C0FF0F8A95DD
:10303000EAF78F2F0E94B31A15C00E94E41014C043
:1030400089010E5F1F4FFE01849190E2980F983026
:1030500068F48770FE2D01C0FF0F8A95EAF78F2F65
:103060000E94B91A0E94DC1AE8011AC00E94AC1131
:10307000FBCF2E5F3F4FFE01C491CC2341F08FE97F
:103080009FE00197F1F700C00000C150F6CFE901C1
:1030900007C0FE01F490E901229602C00E94E410EC
:1030A0008F2D882341F0EFE9FFE03197F1F700C061
:1030B00000008150F6CF9E0192CFDF91CF911F91FA
:1030C0000F91FF90EF90089508956093C101709360
:1030D000C2018093C3019093C4010C9451140F93C7
:1030E0001F930091C1011091C2012091C301309141
:1030F000C401062B172B282B392B0093C1011093E9
:10310000C2012093C3013093C4011F910F910C940D
:1031100051140F931F930091C1011091C20120918E
:10312000C3013091C40106231723282339230093B8
:10313000C1011093C2012093C3013093C4011F91B8
:103140000F910C9451140F931F930091C101109192
:10315000C2012091C3013091C401062717272827F7
:1031600039270093C1011093C2012093C30130930A
:10317000C4011F910F910C9451141092BD01109233
:10318000BE011092BF011092C0010C94511441E095
:1031900050E060E070E004C0440F551F661F771FC9
:1031A0008A95D2F74093BD015093BE016093BF0151
:1031B0007093C0010C94511441E050E060E070E065
:1031C00004C0440F551F661F771F8A95D2F7809160
:1031D000BD019091BE01A091BF01B091C001842BAF
:1031E000952BA62BB72B8093BD019093BE01A09386
:1031F000BF01B093C0010C94511441E050E060E075
:1032000070E004C0440F551F661F771F8A95D2F7E0
:1032100040955095609570958091BD019091BE014B
:10322000A091BF01B091C00184239523A623B723A9
:103230008093BD019093BE01A093BF01B093C001E4
:103240000C94511441E050E060E070E004C0440F81
:10325000551F661F771F8A95D2F78091BD01909107
:10326000BE01A091BF01B091C00184279527A62778
:10327000B7278093BD019093BE01A093BF01B09387
:10328000C0010C9451140F931F930091BD01109134
:10329000BE012091BF013091C001062B172B282BB6
:1032A000392B0093BD011093BE012093BF013093D1
:1032B000C0011F910F910C9451140F931F93009113
:1032C000BD011091BE012091BF013091C0010623C4
:1032D0001723282339230093BD011093BE012093A7
:1032E000BF013093C0011F910F910C9451140F93A3
:1032F0001F930091BD011091BE012091BF0130913B
:10330000C00106271727282739270093BD011093EE
:10331000BE012093BF013093C0011F910F910C9407
:1033200051140895CF92DF92EF92FF920F931F9363
:10333000CF93DF93EC01C090C101D090C201E09027
:10334000C301F090C4018091BD019091BE01A09194
:10335000BF01B091C001C82AD92AEA2AFB2A0FE18D
:1033600010E0B701A601002E04C076956795579529
:1033700047950A94D2F740FD05C00150110988F71E
:1033800080E007C0BE01802F0E942F080197A9F39B
:10339000802FDF91CF911F910F91FF90EF90DF90E1
:1033A000CF900895CF93DF93EC010E949219BE0154
:1033B0000E942F08DF91CF910895CB010E94D2196E
:1033C00008958091C501859585958595089580918D
:1033D000C5018770089598E0899F90011124622BA0
:1033E0006093C5010C94DC184091C501809584233D
:1033F0008093C501982F977069F450E0282F3327E8
:1034000027FD30954217530729F0859585958595B9
:103410000C94FD1808959091C501977081E009F40E
:1034200080E0089590910C019923D9F090910D01BD
:103430009923B9F0982F9695969596959F3088F593
:10344000E0910E01F0910F01E90FF11D877021E06D
:1034500030E001C0220F8A95EAF78181822B8183B7
:10346000089540910E0150910F0120E030E09FEF50
:10347000FA01E20FF31F6281681799F09F3F19F478
:10348000611101C0922F2F5F3F4F2E30310581F720
:103490009F3F39F0FA01E90FF11D97FDFA958283FC
:1034A0000895089590910C019923E1F090910D01F8
:1034B0009923C1F0982F9695969596959F3020F573
:1034C000E0910E01F0910F01E90FF11D877021E0ED
:1034D00030E001C0220F8A95EAF7209581812823E8
:1034E0002183089540910E0150910F0120E030E0BA
:1034F000FA01E20FF31F9281981301C012822F5F2D
:103500003F4F2E303105A1F7089581E090E0E09122
:103510000E01F0910F01E80FF91F10820196803122
:103520009105A9F708959091D901982B9093D9010D
:10353000089580959091D90198239093D901089589
:103540001092D90108959091D801982B9093D801A9
:10355000089580959091D80198239093D80108956B
:103560001092D80108959091D701982B9093D7018C
:10357000089580959091D70198239093D70108954D
:103580001092D70108958093C60108951092C60144
:10359000089540910E0150910F0120E030E080E04D
:1035A000FA01E20FF31F918191118F5F2F5F3F4F5F
:1035B0002F303105A9F70895E0910E01F0910F0128
:1035C0008091D9018083E0910E01F0910F018081FB
:1035D0009091D801892B8083E0910E01F0910F0129
:1035E00080819091D701892B80839091C601992386
:1035F00061F0E0910E01F0910F018081892B8083B1
:103600000E94C91A81111092C60180910E019091F9
:103610000F010C94D10F40E0009739F09C0121502C
:103620003109822393234F5FF7CF842F0895CF92E0
:10363000DF92EF92FF920F931F936C01EE24FF2411
:10364000C114D104E104F10421F46B017C0180E098
:1036500001C080E133272F2D1E2D0D2D01151105E1
:103660002105310519F0885F68017901970186010C
:10367000A4E03695279517950795AA95D1F70115DA
:1036800011052105310519F08C5F68017901970159
:103690008601F2E03695279517950795FA95D1F7AB
:1036A000011511052105310519F08E5F68017901B9
:1036B000B701A6017695679557954795452B462BFB
:1036C000472B09F08F5F1F910F91FF90EF90DF90D4
:1036D000CF9008958091F101843021F11092DB01A7
:1036E00020E488E190E00FB6F894A89580936000FC
:1036F0000FBE2093600080E00E94CA0883B7817FDC
:10370000846083BF83B7816083BF7894889583B7D3
:103710008E7F83BF88E10FB6F8948093600010928B
:1037200060000FBE0895089508950E94931B0E94A3
:1037300039040E94941B0E942D0591E0811101C063
:1037400090E0892F08950E9465140E94C50F0C9483
:10375000CA0882E084BD93E095BD9AEF97BD80933F
:103760006E0008952FB7F8948091DC019091DD01EF
:10377000A091DE01B091DF012FBF0895CF92DF92BB
:10378000EF92FF920F931F932FB7F8944091DC01B3
:103790005091DD016091DE017091DF012FBF6A0160
:1037A0007B01EE24FF248C0120E030E0C016D1061E
:1037B000E206F30610F441505109481B590BCA01A7
:1037C0001F910F91FF90EF90DF90CF9008951F927F
:1037D0000F920FB60F9211248F939F93AF93BF93C5
:1037E0008091DC019091DD01A091DE01B091DF01BB
:1037F0000196A11DB11D8093DC019093DD01A09382
:10380000DE01B093DF01BF91AF919F918F910F9037
:103810000FBE0F901F9018950E94CB0CF8942FEFBD
:1038200087EA91E6215080409040E1F700C0000017
:1038300087E090EBDC018093FB019093FC01A09367
:10384000FD01B093FE012CE088E190E00FB6F89402
:10385000A895809360000FBE20936000FFCFEF9289
:10386000FF920F931F93CF93DF93E82E8DE0F82EF6
:103870008F2D0E942605C5E0D0E0082F10E09801AA
:103880000C2E02C0359527950A94E2F720FF09C057
:103890006C2F7F2D80E00E94DD05E81202C081E0E0
:1038A00007C0219760F7FA948FEFF812E1CF80E01C
:1038B000DF91CF911F910F91FF90EF900895CF93DB
:1038C000C82F8CE20E942F1C882321F08C2FCF91CF
:1038D0000C942F1C80E0CF910895CF930E94B21DCD
:1038E000811102C00E94981DC5E6C15049F00E9496
:1038F00039048FE39CE90197F1F700C00000F5CF90
:1039000089E20E945F1C811111C18AE20E945F1C42
:1039100081110E94981D85E00E945F1C81110E9408
:103920000C1C0E94BD1D8093DA0187E00E945F1C81
:10393000882399F18BE10E945F1C882351F09091BC
:10394000DA0191FB882780F921E0822780FB91F939
:1039500022C08EE00E945F1C882351F09091DA0112
:1039600092FB882780F921E0822780FB92F913C01F
:1039700080E10E945F1C9091DA01882341F093FB63
:10398000882780F921E0822780FB93F904C0892FE2
:10399000809580FB90F99093DA018091DA010E9482
:1039A000C11D0E94CF1D8093FA0180EE0E945F1C12
:1039B000882341F08091FA01982F909590FB80F92F
:1039C0008093FA0189E30E945F1C882359F090914B
:1039D000FA0191FB882780F921E0822780FB91F989
:1039E0009093FA0182EE0E945F1C882359F0909117
:1039F000FA0192FB882780F921E0822780FB92F967
:103A00009093FA0186EE0E945F1C882359F09091F2
:103A1000FA0193FB882780F921E0822780FB93F944
:103A20009093FA0183EE0E945F1C882359F09091D5
:103A3000FA0194FB882780F921E0822780FB94F922
:103A40009093FA0185E30E945F1C882359F09091BE
:103A5000FA0195FB882780F921E0822780FB95F900
:103A60009093FA0181E30E945F1C882359F09091A2
:103A7000FA0196FB882780F921E0822780FB96F9DE
:103A80009093FA0181E10E945F1C882359F0909184
:103A9000FA0197FB882780F921E0822780FB97F9BC
:103AA0009093FA018091FA010E94D31D8091FA014E
:103AB00087FB882780F980930D0187E20E945F1CB5
:103AC000C82F8EE10E945F1C8111C2608FE10E94AD
:103AD0005F1C8111C46080E20E945F1C8111C8607C
:103AE00081E20E945F1C8111C06182E20E945F1C22
:103AF0008111C06283E20E945F1C8111C06484E274
:103B00000E945F1C882311F0C06802C0CC2329F0FA
:103B10008C2F0E94CA1D6C2F03C00E94C61D682FE7
:103B200070E080E090E0CF910C946518CF910895FB
:103B30006DEE7EEF80E090E00E94F02360E082E096
:103B400090E00E94DE2360E083E090E00E94DE23AC
:103B500060E084E090E00E94DE2360E085E090E099
:103B60000C94DE2380E090E00E94D82321E08D3E7B
:103B70009E4F09F020E0822F089582E090E00C949F
:103B8000D023682F82E090E00C94DE2383E090E065
:103B90000C94D023682F83E090E00C94DE2384E023
:103BA00090E00C94D023682F84E090E00C94DE2306
:103BB0008091E20180FF0BC06091130185E0689F56
:103BC000B001112475956795759567952AC081FF99
:103BD00009C06091130185E0689FB00111247595BB
:103BE00067951FC082FF07C06091130185E0689F41
:103BF000B001112416C04091E3014423C9F0609143
:103C00001201461788F72091130185E0289F900143
:103C10001124429FC001439F900D112470E00E9427
:103C2000A2236038710540F46115710539F002C0B6
:103C300065E070E0862F08958FE7089581E008958C
:103C40008091E20180FF08C06091110170E07595DC
:103C500067957595679521C081FF06C06091110138
:103C600070E07595679519C082FF04C060911101DD
:103C700070E010C08091E3018823C1F060911001D1
:103C80008617A0F790911101989FC001112470E050
:103C90000E94A2236038710528F46115710521F096
:103CA000862F08958FE7089581E0089561E070E020
:103CB000F4CF803F21F40E94D81D819504C0813F3C
:103CC00029F40E94D81D8093E6010895823F21F4D3
:103CD0000E94D81D819504C0833F29F40E94D81DFD
:103CE0008093E5010895893F19F40E94201E05C0C4
:103CF0008A3F31F40E94201E81958093E701089548
:103D00008B3F21F40E94201E819504C08C3F29F432
:103D10000E94201E8093E8010895843F21F4809141
:103D2000E401816017C0853F21F48091E401826045
:103D300011C0863F21F48091E40184600BC0873F6D
:103D400021F48091E401886005C0883F31F48091BE
:103D5000E40180618093E40108958D3F21F4809116
:103D6000E20181600BC08E3F21F48091E20182600C
:103D700005C08F3F29F48091E20184608093E201C5
:103D80000895803F39F48091E60187FF6CC010925E
:103D9000E60169C0813F29F48091E6011816BCF361
:103DA00062C09091E501823F29F497FF5CC01092B8
:103DB000E50159C0833F19F41916CCF354C0893F6B
:103DC00041F48091E70118160CF04DC01092E70104
:103DD0004AC08A3F29F48091E70187FF44C0F6CFAB
:103DE0008B3F39F48091E80187FF3DC01092E801D4
:103DF0003AC08C3F29F48091E8011816BCF333C017
:103E0000843F21F48091E4018E7F17C0853F21F427
:103E10008091E4018D7F11C0863F21F48091E401FF
:103E20008B7F0BC0873F21F48091E401877F05C021
:103E3000883F31F48091E4018F7E8093E40113C0C8
:103E40008D3F21F48091E2018E7F0BC08E3F21F4E3
:103E50008091E2018D7F05C08F3F29F48091E201BE
:103E60008B7F8093E2018091E50181110EC08091EA
:103E7000E60181110AC08091E701811106C080919D
:103E8000E801811102C01092E301089584EE91E0EF
:103E90000E94DC0F0E94B21B9093E1018093E0012D
:103EA00008951F93CF93DF938091E0019091E101FA
:103EB0000E94BE1B4091E301442321F02091140194
:103EC00030E006C0209115015AE0259F9001112491
:103ED0008217930708F482C08091E5011091E601F2
:103EE000D091E701C091E801811107C0111105C00F
:103EF000D11103C0CC2309F471C04F3F19F04F5FBB
:103F00004093E301181624F40E94D81D8093E50124
:103F10008091E50187FF05C00E94D81D819580939F
:103F2000E501111624F40E94D81D8093E6018091CA
:103F3000E60187FF05C00E94D81D81958093E601A8
:103F40006091E501662339F11091E601112319F121
:103F5000772767FD7095872F972F0E94B32223E361
:103F600033E343E35FE30E9417230E9480226093C0
:103F7000E501612F772767FD7095872F972F0E94A6
:103F8000B32223E333E343E35FE30E9417230E945A
:103F900080226093E6011D1624F40E94201E809367
:103FA000E7018091E70187FF05C00E94201E8195EF
:103FB0008093E7011C1624F40E94201E8093E801E0
:103FC0008091E80187FF05C00E94201E81958093A3
:103FD000E801DF91CF911F910C94461FDF91CF91A3
:103FE0001F910895E4EEF1E085E0DF011D928A95CE
:103FF000E9F71092E3011092E2010895833081F114
:1040000028F4813059F08230D1F00895853009F4D8
:1040100049C0B8F1863009F456C0089520911501C1
:10402000862F90E0820F911D8F3F910520F4620F43
:104030006093150108958FEF8093150108952091E5
:104040001401862F90E0820F911D8F3F910520F47F
:10405000620F6093140108958FEF80931401089507
:1040600020911301862F90E0820F911D8F3F9105C3
:1040700020F4620F6093130108958FEF8093130172
:10408000089520911201862F90E0820F911D8F3F9D
:10409000910520F4620F6093120108958FEF8093D1
:1040A0001201089520911101862F90E0820F911D39
:1040B0008F3F910520F4620F6093110108958FEFF7
:1040C00080931101089520911001862F90E0820FB6
:1040D000911D8F3F910520F4620F609310010895A8
:1040E0008FEF809310010895833011F128F481300F
:1040F00049F0823091F00895853081F120F18630C9
:10410000C1F1089580911501681720F4861B8093F2
:1041100015010895109215010895809114016817F2
:1041200020F4861B809314010895109214010895C1
:1041300080911301681720F4861B80931301089562
:1041400010921301089580911201681720F4861BC4
:104150008093120108951092120108958091110127
:10416000681720F4861B80931101089510921101A5
:10417000089580911001681720F4861B8093100128
:1041800008951092100108958D3109F442C020F570
:104190008E3009F477C070F4873009F459C018F4F0
:1041A0008630F1F134C0883009F4A8C08B3009F4AE
:1041B000A5C02DC0863109F4A1C038F4803109F4BE
:1041C00072C0813109F479C022C0893109F496C0E6
:1041D0008B3109F44DC01BC0853309F487C048F406
:1041E000873209F483C008F473C0893209F47EC0B1
:1041F0000EC0833438F48A3308F068C0883309F479
:104200007DC005C0833409F471C0883499F080E022
:1042100008950E943A220E94C50F0E94CA086EC0EB
:104220008091DA01817F8E7F8093DA0181E0809333
:10423000EA0108950E9465142FEF83ED90E3215069
:1042400080409040E1F700C000000E940C1C56C066
:104250009091DA01892F8095817080FB90F919F097
:10426000966098601DC0997F977F9093DA0146C051
:104270009091DA0191FB882780F921E0822780FB69
:1042800091F909C09091DA0192FB882780F921E029
:10429000822780FB92F99093DA01882379F191606B
:1042A0009093DA0108959091DA0193FB882780F9C1
:1042B00021E0822780FB93F9EECF0E946514809164
:1042C0000D0191E0892780930D0118C027EC01C0F2
:1042D00023EE280F61E070E080E090E004C0660FFC
:1042E000771F881F991F2A95D2F704C061E070E0FC
:1042F00080E090E00E9465180E94651481E00895B6
:1043000080E0089580E00895CF93C82F8091EA015E
:10431000813079F018F08230D1F184C0A0910E0183
:10432000B0910F018C91813169F0823209F07CC02B
:1043300009C0A0910E01B0910F018C91813111F053
:10434000823249F48C2F0E94802181111DC08C2F54
:104350000E94C4201AC08C2F0E948221811114C097
:10436000C43179F048F4CB3079F0C03109F060C045
:1043700082E08093EA0108C0C93219F0C83321F005
:1043800057C01092EA0154C081E0817053C0C93215
:1043900089F118F5C43171F1A8F4C73009F046C0AD
:1043A0008AE08093150194E19093140193E0909337
:1043B00013018093120188E08093110188E28093B9
:1043C000100134C0CE51C63088F5EC2FF0E0E65D28
:1043D000FE4F80818093E90129C0CE34E9F020F4BA
:1043E000CB3421F56AE013C0C13579F0C235F1F460
:1043F00061E00DC08091E901882319F01092E90174
:1044000015C081E08093EA0115C061E006C080918B
:10441000E9010E94FE1F0AC06AE08091E9010E9442
:10442000742004C01092EA0180E004C081E002C060
:1044300080E0ABCFCF910895E1E8F0E08081886023
:1044400080838081816080838FB7F89493E090931C
:10445000890090ED909388008FBF0895EFE6F0E01B
:104460008081826080830895EFE6F0E080818D7F17
:1044700080830895EFE6F0E0808192E089278083D1
:1044800008951F920F920FB60F9211242F933F930E
:104490004F935F936F937F938F939F93AF93BF934C
:1044A000EF93FF938091EB019091EC010196909333
:1044B000EC018093EB01811103C082E00E94CA08E5
:1044C000E091EC01E695E695F0E0EB54FB4FE491CA
:1044D0008091EB018E1303C080E00E94CA08FF9117
:1044E000EF91BF91AF919F918F917F916F915F916C
:1044F0004F913F912F910F900FBE0F901F901895E5
:1045000004D06894B1118DC0089570D088F09F5781
:1045100090F0B92F9927B751A0F0D1F0660F771F0F
:10452000881F991F1AF0BA95C9F712C0B13081F0EF
:1045300077D0B1E0089574C0672F782F8827B85FCF
:1045400039F0B93FCCF3869577956795B395D9F750
:104550003EF490958095709561957F4F8F4F9F4F5A
:104560000895E89409C097FB3EF490958095709566
:1045700061957F4F8F4F9F4F9923A9F0F92F96E9AF
:10458000BB279395F695879577956795B795F11124
:10459000F8CFFAF4BB0F11F460FF1BC06F5F7F4FC1
:1045A0008F4F9F4F16C0882311F096E911C07723D3
:1045B00021F09EE8872F762F05C0662371F096E8DC
:1045C000862F70E060E02AF09A95660F771F881FAB
:1045D000DAF7880F9695879597F9089557FD9058C3
:1045E000440F551F59F05F3F71F04795880F97FBB7
:1045F000991F61F09F3F79F0879508951216130671
:104600001406551FF2CF4695F1DF08C0161617069F
:104610001806991FF1CF86957105610508940895D4
:10462000E894BB2766277727CB0197F908950BD02D
:1046300078C069D028F06ED018F0952309F05AC0E0
:104640005FC01124EECFCADFA0F3959FD1F3950F81
:1046500050E0551F629FF001729FBB27F00DB11D06
:10466000639FAA27F00DB11DAA1F649F6627B00D96
:10467000A11D661F829F2227B00DA11D621F739F7F
:10468000B00DA11D621F839FA00D611D221F749F8D
:104690003327A00D611D231F849F600D211D822FD4
:1046A000762F6A2F11249F5750408AF0E1F088231B
:1046B0004AF0EE0FFF1FBB1F661F771F881F915028
:1046C0005040A9F79E3F510570F014C0AACF5F3F3C
:1046D000ECF3983EDCF3869577956795B795F7955B
:1046E000E7959F5FC1F7FE2B880F911D96958795E3
:1046F00097F9089597F99F6780E870E060E0089562
:104700009FEF80EC089500240A94161617061806E9
:104710000906089500240A941216130614060506C5
:104720000895092E0394000C11F4882352F0BB0F56
:1047300040F4BF2B11F460FF04C06F5F7F4F8F4FB9
:104740009F4F089597FB072E16F4009407D077FD2E
:1047500009D00E94BC2307FC05D03EF490958195BA
:104760009F4F0895709561957F4F0895EE0FFF1F3D
:104770000590F491E02D0994AA1BBB1B51E107C0E1
:10478000AA1FBB1FA617B70710F0A61BB70B881FE1
:10479000991F5A95A9F780959095BC01CD01089570
:1047A000F999FECF92BD81BDF89A992780B50895F9
:1047B000A8E1B0E042E050E00C94F823262FF999EC
:1047C000FECF92BD81BDF89A019700B4021639F070
:1047D0001FBA20BD0FB6F894FA9AF99A0FBE089541
:1047E0000196272F0E94DF230C94DE23DC01CB01EE
:1047F000FC01F999FECF06C0F2BDE1BDF89A3196F1
:1048000000B40D9241505040B8F70895F894FFCF8E
:104810002002CC08590936090209CF080101C70155
:1048200028080A03140A404D363975042804F20397
:10483000B9034C0365037E039703010203040506D5
:04484000070809005C
:00000001FF
